{
  "contractName": "Voting",
  "abi": [
    {
      "inputs": [],
      "stateMutability": "nonpayable",
      "type": "constructor"
    },
    {
      "anonymous": false,
      "inputs": [
        {
          "indexed": true,
          "internalType": "uint256",
          "name": "candidateId",
          "type": "uint256"
        },
        {
          "indexed": false,
          "internalType": "string",
          "name": "name",
          "type": "string"
        }
      ],
      "name": "candidateAdded",
      "type": "event"
    },
    {
      "anonymous": false,
      "inputs": [
        {
          "indexed": true,
          "internalType": "uint256",
          "name": "candidateId",
          "type": "uint256"
        }
      ],
      "name": "votedEvent",
      "type": "event"
    },
    {
      "inputs": [
        {
          "internalType": "string",
          "name": "",
          "type": "string"
        }
      ],
      "name": "candidateExists",
      "outputs": [
        {
          "internalType": "bool",
          "name": "",
          "type": "bool"
        }
      ],
      "stateMutability": "view",
      "type": "function",
      "constant": true
    },
    {
      "inputs": [
        {
          "internalType": "uint256",
          "name": "",
          "type": "uint256"
        }
      ],
      "name": "candidates",
      "outputs": [
        {
          "internalType": "uint256",
          "name": "id",
          "type": "uint256"
        },
        {
          "internalType": "string",
          "name": "name",
          "type": "string"
        },
        {
          "internalType": "uint256",
          "name": "voteCount",
          "type": "uint256"
        }
      ],
      "stateMutability": "view",
      "type": "function",
      "constant": true
    },
    {
      "inputs": [],
      "name": "candidatesCount",
      "outputs": [
        {
          "internalType": "uint256",
          "name": "",
          "type": "uint256"
        }
      ],
      "stateMutability": "view",
      "type": "function",
      "constant": true
    },
    {
      "inputs": [
        {
          "internalType": "address",
          "name": "",
          "type": "address"
        }
      ],
      "name": "voters",
      "outputs": [
        {
          "internalType": "bool",
          "name": "",
          "type": "bool"
        }
      ],
      "stateMutability": "view",
      "type": "function",
      "constant": true
    },
    {
      "inputs": [
        {
          "internalType": "string",
          "name": "_name",
          "type": "string"
        }
      ],
      "name": "addCandidate",
      "outputs": [],
      "stateMutability": "nonpayable",
      "type": "function"
    },
    {
      "inputs": [
        {
          "internalType": "uint256",
          "name": "_candidateId",
          "type": "uint256"
        }
      ],
      "name": "vote",
      "outputs": [],
      "stateMutability": "nonpayable",
      "type": "function"
    }
  ],
  "bytecode": "0x60806040523480156200001157600080fd5b50620000586040518060400160405280600481526020017f52616d6100000000000000000000000000000000000000000000000000000000815250620000ea60201b60201c565b6200009e6040518060400160405280600481526020017f4e69636b00000000000000000000000000000000000000000000000000000000815250620000ea60201b60201c565b620000e46040518060400160405280600481526020017f4a6f736500000000000000000000000000000000000000000000000000000000815250620000ea60201b60201c565b62000623565b600281604051620000fc919062000448565b908152602001604051809103902060009054906101000a900460ff16156200015b576040517f08c379a00000000000000000000000000000000000000000000000000000000081526004016200015290620004a7565b60405180910390fd5b6000815111620001a2576040517f08c379a0000000000000000000000000000000000000000000000000000000008152600401620001999062000485565b60405180910390fd5b60036000815480929190620001b79062000566565b91905055506040518060600160405280600354815260200182815260200160008152506000806003548152602001908152602001600020600082015181600001556020820151816001019080519060200190620002169291906200029c565b5060408201518160020155905050600160028260405162000238919062000448565b908152602001604051809103902060006101000a81548160ff0219169083151502179055506003547f4e533c53f778a27389df73e6c2093f620b89f32beda6edc0a994be6ab49e7cce8260405162000291919062000461565b60405180910390a250565b828054620002aa9062000530565b90600052602060002090601f016020900481019282620002ce57600085556200031a565b82601f10620002e957805160ff19168380011785556200031a565b828001600101855582156200031a579182015b8281111562000319578251825591602001919060010190620002fc565b5b5090506200032991906200032d565b5090565b5b80821115620003485760008160009055506001016200032e565b5090565b60006200035982620004c9565b620003658185620004d4565b935062000377818560208601620004fa565b620003828162000612565b840191505092915050565b60006200039a82620004c9565b620003a68185620004e5565b9350620003b8818560208601620004fa565b80840191505092915050565b6000620003d3601483620004d4565b91507f4e616d652063616e6e6f7420626520656d7074790000000000000000000000006000830152602082019050919050565b600062000415601883620004d4565b91507f43616e64696461746520616c72656164792065786973747300000000000000006000830152602082019050919050565b60006200045682846200038d565b915081905092915050565b600060208201905081810360008301526200047d81846200034c565b905092915050565b60006020820190508181036000830152620004a081620003c4565b9050919050565b60006020820190508181036000830152620004c28162000406565b9050919050565b600081519050919050565b600082825260208201905092915050565b600081905092915050565b6000819050919050565b60005b838110156200051a578082015181840152602081019050620004fd565b838111156200052a576000848401525b50505050565b600060028204905060018216806200054957607f821691505b6020821081141562000560576200055f620005e3565b5b50919050565b60006200057382620004f0565b91507fffffffffffffffffffffffffffffffffffffffffffffffffffffffffffffffff821415620005a957620005a8620005b4565b5b600182019050919050565b7f4e487b7100000000000000000000000000000000000000000000000000000000600052601160045260246000fd5b7f4e487b7100000000000000000000000000000000000000000000000000000000600052602260045260246000fd5b6000601f19601f8301169050919050565b610c9b80620006336000396000f3fe608060405234801561001057600080fd5b50600436106100625760003560e01c80630121b93f146100675780632d35a8a2146100835780633477ee2e146100a1578063462e91ec146100d3578063a3ec138d146100ef578063b620855b1461011f575b600080fd5b610081600480360381019061007c919061072e565b61014f565b005b61008b6102df565b60405161009891906109b3565b60405180910390f35b6100bb60048036038101906100b6919061072e565b6102e5565b6040516100ca939291906109ce565b60405180910390f35b6100ed60048036038101906100e891906106ed565b610397565b005b610109600480360381019061010491906106c4565b610539565b60405161011691906108f6565b60405180910390f35b610139600480360381019061013491906106ed565b610559565b60405161014691906108f6565b60405180910390f35b600160003373ffffffffffffffffffffffffffffffffffffffff1673ffffffffffffffffffffffffffffffffffffffff16815260200190815260200160002060009054906101000a900460ff16156101dc576040517f08c379a00000000000000000000000000000000000000000000000000000000081526004016101d390610953565b60405180910390fd5b6000811180156101ee57506003548111155b61022d576040517f08c379a000000000000000000000000000000000000000000000000000000000815260040161022490610973565b60405180910390fd5b60018060003373ffffffffffffffffffffffffffffffffffffffff1673ffffffffffffffffffffffffffffffffffffffff16815260200190815260200160002060006101000a81548160ff02191690831515021790555060008082815260200190815260200160002060020160008154809291906102aa90610b50565b9190505550807ffff3c900d938d21d0990d786e819f29b8d05c1ef587b462b939609625b684b1660405160405180910390a250565b60035481565b600060205280600052604060002060009150905080600001549080600101805461030e90610b1e565b80601f016020809104026020016040519081016040528092919081815260200182805461033a90610b1e565b80156103875780601f1061035c57610100808354040283529160200191610387565b820191906000526020600020905b81548152906001019060200180831161036a57829003601f168201915b5050505050908060020154905083565b6002816040516103a791906108df565b908152602001604051809103902060009054906101000a900460ff1615610403576040517f08c379a00000000000000000000000000000000000000000000000000000000081526004016103fa90610993565b60405180910390fd5b6000815111610447576040517f08c379a000000000000000000000000000000000000000000000000000000000815260040161043e90610933565b60405180910390fd5b6003600081548092919061045a90610b50565b919050555060405180606001604052806003548152602001828152602001600081525060008060035481526020019081526020016000206000820151816000015560208201518160010190805190602001906104b792919061058f565b506040820151816002015590505060016002826040516104d791906108df565b908152602001604051809103902060006101000a81548160ff0219169083151502179055506003547f4e533c53f778a27389df73e6c2093f620b89f32beda6edc0a994be6ab49e7cce8260405161052e9190610911565b60405180910390a250565b60016020528060005260406000206000915054906101000a900460ff1681565b6002818051602081018201805184825260208301602085012081835280955050505050506000915054906101000a900460ff1681565b82805461059b90610b1e565b90600052602060002090601f0160209004810192826105bd5760008555610604565b82601f106105d657805160ff1916838001178555610604565b82800160010185558215610604579182015b828111156106035782518255916020019190600101906105e8565b5b5090506106119190610615565b5090565b5b8082111561062e576000816000905550600101610616565b5090565b600061064561064084610a3d565b610a0c565b90508281526020810184848401111561065d57600080fd5b610668848285610adc565b509392505050565b60008135905061067f81610c37565b92915050565b600082601f83011261069657600080fd5b81356106a6848260208601610632565b91505092915050565b6000813590506106be81610c4e565b92915050565b6000602082840312156106d657600080fd5b60006106e484828501610670565b91505092915050565b6000602082840312156106ff57600080fd5b600082013567ffffffffffffffff81111561071957600080fd5b61072584828501610685565b91505092915050565b60006020828403121561074057600080fd5b600061074e848285016106af565b91505092915050565b61076081610aa6565b82525050565b600061077182610a6d565b61077b8185610a78565b935061078b818560208601610aeb565b61079481610c26565b840191505092915050565b60006107aa82610a6d565b6107b48185610a89565b93506107c4818560208601610aeb565b80840191505092915050565b60006107dd601483610a78565b91507f4e616d652063616e6e6f7420626520656d7074790000000000000000000000006000830152602082019050919050565b600061081d600e83610a78565b91507f416c726561647920766f7465642e0000000000000000000000000000000000006000830152602082019050919050565b600061085d601183610a78565b91507f496e76616c69642063616e6469646174650000000000000000000000000000006000830152602082019050919050565b600061089d601883610a78565b91507f43616e64696461746520616c72656164792065786973747300000000000000006000830152602082019050919050565b6108d981610ad2565b82525050565b60006108eb828461079f565b915081905092915050565b600060208201905061090b6000830184610757565b92915050565b6000602082019050818103600083015261092b8184610766565b905092915050565b6000602082019050818103600083015261094c816107d0565b9050919050565b6000602082019050818103600083015261096c81610810565b9050919050565b6000602082019050818103600083015261098c81610850565b9050919050565b600060208201905081810360008301526109ac81610890565b9050919050565b60006020820190506109c860008301846108d0565b92915050565b60006060820190506109e360008301866108d0565b81810360208301526109f58185610766565b9050610a0460408301846108d0565b949350505050565b6000604051905081810181811067ffffffffffffffff82111715610a3357610a32610bf7565b5b8060405250919050565b600067ffffffffffffffff821115610a5857610a57610bf7565b5b601f19601f8301169050602081019050919050565b600081519050919050565b600082825260208201905092915050565b600081905092915050565b6000610a9f82610ab2565b9050919050565b60008115159050919050565b600073ffffffffffffffffffffffffffffffffffffffff82169050919050565b6000819050919050565b82818337600083830152505050565b60005b83811015610b09578082015181840152602081019050610aee565b83811115610b18576000848401525b50505050565b60006002820490506001821680610b3657607f821691505b60208210811415610b4a57610b49610bc8565b5b50919050565b6000610b5b82610ad2565b91507fffffffffffffffffffffffffffffffffffffffffffffffffffffffffffffffff821415610b8e57610b8d610b99565b5b600182019050919050565b7f4e487b7100000000000000000000000000000000000000000000000000000000600052601160045260246000fd5b7f4e487b7100000000000000000000000000000000000000000000000000000000600052602260045260246000fd5b7f4e487b7100000000000000000000000000000000000000000000000000000000600052604160045260246000fd5b6000601f19601f8301169050919050565b610c4081610a94565b8114610c4b57600080fd5b50565b610c5781610ad2565b8114610c6257600080fd5b5056fea264697066735822122072172b242f0604491499b3e5896a44ce42a96c9504bebb7f56e8266fe10e5a9164736f6c63430008000033",
  "immutableReferences": {},
  "source": "// SPDX-License-Identifier: MIT\r\npragma solidity ^0.8.0;\r\n\r\ncontract Voting {\r\n    struct Candidate {\r\n        uint id;\r\n        string name;\r\n        uint voteCount;\r\n    }\r\n\r\n    mapping(uint => Candidate) public candidates;\r\n    mapping(address => bool) public voters;\r\n    mapping(string => bool) public candidateExists; // To prevent duplicate candidates\r\n\r\n    uint public candidatesCount;\r\n\r\n    event votedEvent(uint indexed candidateId);\r\n    event candidateAdded(uint indexed candidateId, string name);\r\n\r\n    constructor() {\r\n        addCandidate(\"Rama\");\r\n        addCandidate(\"Nick\");\r\n        addCandidate(\"Jose\");\r\n    }\r\n\r\n    function addCandidate(string memory _name) public {\r\n        require(!candidateExists[_name], \"Candidate already exists\");\r\n        require(bytes(_name).length > 0, \"Name cannot be empty\");\r\n        \r\n        candidatesCount++;\r\n        candidates[candidatesCount] = Candidate(candidatesCount, _name, 0);\r\n        candidateExists[_name] = true;\r\n        \r\n        emit candidateAdded(candidatesCount, _name);\r\n    }\r\n\r\n    function vote(uint _candidateId) public {\r\n        require(!voters[msg.sender], \"Already voted.\");\r\n        require(\r\n            _candidateId > 0 && _candidateId <= candidatesCount,\r\n            \"Invalid candidate\"\r\n        );\r\n\r\n        voters[msg.sender] = true;\r\n        candidates[_candidateId].voteCount++;\r\n\r\n        emit votedEvent(_candidateId);\r\n    }\r\n} ",
  "sourcePath": "C:\\Users\\Shema Leandre\\Documents\\git\\voting_system\\voting_system\\contracts\\Voting.sol",
  "compiler": {
    "name": "solc",
    "version": "0.8.0+commit.c7dfd78e.Emscripten.clang"
  },
  "schemaVersion": "3.4.16",
  "updatedAt": "2025-05-26T13:05:34.256Z",
  "networkType": "ethereum",
  "devdoc": {
    "kind": "dev",
    "methods": {},
    "version": 1
  },
  "userdoc": {
    "kind": "user",
    "methods": {},
    "version": 1
  }
}